:020000040800F2
:1000000000C00120819E0008A1060008A306000888
:10001000A5060008A7060008A906000800000000C1
:10002000000000000000000000000000912C00080B
:10003000AB06000800000000312D0008AD060008E6
:10004000D19E0008D19E0008D19E0008D19E0008D4
:10005000D19E0008D19E0008D19E0008D19E0008C4
:10006000D19E0008D19E0008D19E0008D19E0008B4
:10007000D19E0008D19E0008D19E0008D19E0008A4
:10008000D19E0008D19E0008D19E0008D19E000894
:10009000D19E0008D19E0008D19E0008D19E000884
:1000A000D19E0008D19E0008D19E0008D19E000874
:1000B000D19E0008D19E0008D19E0008D19E000864
:1000C000D19E0008D19E0008D19E0008D19E000854
:1000D000D19E0008D19E0008D19E0008D19E000844
:1000E000D19E0008D19E0008D19E0008D19E000834
:1000F000D19E0008D19E0008D19E0008D19E000824
:10010000D19E0008D19E0008D19E0008D19E000813
:10011000D19E0008D19E0008D19E0008D19E000803
:10012000D19E0008D19E0008D19E0008D19E0008F3
:10013000D19E0008C5060008D19E0008D19E000887
:10014000D19E0008D19E0008D19E0008D19E0008D3
:10015000D19E0008D19E0008D19E0008D19E0008C3
:10016000D19E0008D19E0008D19E0008D19E0008B3
:10017000D19E0008D19E0008D19E0008000000001A
:04018000D19E000804
:1001900010B5054C237833B9044B13B10448AFF3C1
:1001A00000800123237010BD7800002000000000B3
:1001B0000CAF000808B5034B1BB103490348AFF36C
:1001C000008008BD000000007C0000200CAF00088B
:1001D00053B94AB9002908BF00281CBF4FF0FF31AE
:1001E0004FF0FF3000F076B9ADF1080C6DE904CEA8
:1001F00000F006F8DDF804E0DDE9022304B0704702
:100200002DE9F047089E0D4604468846002B4DD147
:100210008A42944668D9B2FA82F252B101FA02F3E4
:10022000C2F1200120FA01F10CFA02FC41EA0308B4
:1002300094404FEA1C41B8FBF1F71FFA8CFE01FB1A
:10024000178807FB0EF0230C43EA084398420AD9AB
:100250001CEB030307F1FF3580F01E81984240F24A
:100260001B81023F63441B1AB3FBF1F001FB103307
:1002700000FB0EFEA4B244EA0344A6450AD91CEBD7
:10028000040400F1FF3380F00981A64540F20681A5
:10029000644402380021A4EB0E0440EA07401EB17A
:1002A0000023D440C6E90043BDE8F0878B4208D95B
:1002B000002E00F0EE800021C6E900050846BDE8EA
:1002C000F087B3FA83F100294AD1AB4202D38242CC
:1002D00000F2FC80841A65EB030301209846002E8F
:1002E000E2D0C6E90048DFE702B9FFDEB2FA82F2E7
:1002F000002A40F09180A1EB0C0001214FEA1C473D
:100300001FFA8CFEB0FBF7F307FB1300250C45EA40
:1003100000450EFB03F0A84208D91CEB050503F1CC
:10032000FF3802D2A84200F2CE8043462D1AB5FB18
:10033000F7F007FB10550EFB00FEA4B244EA05449B
:10034000A64508D91CEB040400F1FF3502D2A645EE
:1003500000F2B6802846A4EB0E0440EA03409EE774
:10036000C1F120078B4022FA07FC4CEA030C25FA66
:1003700007FA4FEA1C49BAFBF9F820FA07F309FB20
:1003800018AA8D401FFA8CFE1D4300FA01F308FBEA
:100390000EF02C0C44EA0A44A04202FA01F20BD9F6
:1003A0001CEB040408F1FF3A80F08880A04240F280
:1003B0008580A8F102086444241AB4FBF9F009FB13
:1003C000104400FB0EFEADB245EA0444A64508D930
:1003D0001CEB040400F1FF356CD2A6456AD9023843
:1003E000644440EA0840A0FB0295A4EB0E04AC4232
:1003F000C846AE4656D353D0002E69D0B3EB0802A0
:1004000064EB0E0422FA01F304FA07F71F43CC4011
:10041000C6E90074002147E70CFA02FCC2F1200192
:1004200025FA01F34FEA1C4720FA01F195400D43EC
:10043000B3FBF7F107FB11331FFA8CFE280C40EADF
:10044000034001FB0EF3834204FA02F408D91CEBCB
:10045000000001F1FF382FD283422DD902396044C8
:10046000C01AB0FBF7F307FB1300ADB245EA004535
:1004700003FB0EF0A84208D91CEB050503F1FF3879
:1004800016D2A84214D9023B6544281A43EA014116
:1004900038E73146304607E72F46E4E61846F9E6E6
:1004A0004B45A9D2B9EB020865EB0C0E0138A3E766
:1004B0004346EAE7284694E74146D1E7D0467BE742
:1004C0006444023847E7023B65442FE7084606E7E5
:1004D0003146E9E6704700BF30B58BB00024059483
:1004E000069407940894099401941E4B1A6B42F0E9
:1004F00080021A631A6B02F080020192019A029440
:100500001A6B42F004021A631A6B02F004020292A0
:10051000029A03941A6B42F001021A631A6B02F0FA
:1005200001020392039A04941A6B42F002021A63C6
:100530001B6B03F002030493049B0B4D22464FF404
:100540000071284600F0A6FD4FF4007305930123C7
:1005500006930794089405A9284600F097FC0BB071
:1005600030BD00BF003802400004024008B502F070
:10057000B9FCFEE708B505E001224FF40071094817
:1005800000F088FD4FF47A7002F0B2F8064B1B6859
:10059000002BF1D100224FF40071024800F07AFDE7
:1005A000F0E700BF000402408840002072B6FEE77A
:1005B00000B593B03022002106A809F0CDFC00233D
:1005C00001930293039304930593012306930793E6
:1005D00002230C934FF480030D9310230E93C0233A
:1005E0000F9304231093119306A800F0FDF890B91F
:1005F0000F23019302210291002303934FF4A05390
:1006000004934FF48053059301A800F017FB20B921
:1006100013B05DF804FBFFF7C9FFFFF7C7FF000049
:1006200000B58FB000F09EF8FFF7C2FFFFF754FF50
:10063000124C0DF11C0CA646BEE80F00ACE80F00F2
:100640009EE807008CE80700002107A802F01BF8CD
:100650000B4B1860EE4604F11C0CBCE80F00AEE832
:100660000F009CE807008EE807000021684602F0B2
:100670000AF8044B186001F0F7FFFEE724AF00080A
:100680009400002098000020034B0360034B0B6094
:1006900080231360704700BF9C0200209C00002054
:1006A000FEE7FEE7FEE7FEE7FEE7704708B500F06D
:1006B00073F801F097FE012800D108BD02F05AFB43
:1006C000FBE7000008B5024803F060FA08BD00BF70
:1006D0003C71002000B583B0002200920D4B596C94
:1006E00041F480415964596C01F4804100910099B2
:1006F0000192196C41F0805119641B6C03F0805316
:100700000193019B0F216FF0010000F065FB03B026
:100710005DF804FB0038024010B504460E4B187813
:100720004FF47A73B3FBF0F30C4A1068B0FBF3F0AC
:1007300000F098FB68B90F2C01D901200AE00022D3
:1007400021464FF0FF3000F047FB054B1C600020B6
:1007500000E0012010BD00BF0000002008000020C4
:100760000400002008B50B4B1A6842F400721A60AE
:100770001A6842F480621A601A6842F480721A6041
:10078000032000F017FB0F20FFF7C6FFFFF7A2FFC3
:10079000002008BD003C0240034A1168034B1B784F
:1007A0000B441360704700BFF002002000000020DF
:1007B000014B1868704700BFF002002030B583B0CD
:1007C0000190FFF7F5FF0546019CB4F1FF3F02D011
:1007D000044B1B781C44FFF7EBFF401BA042FAD3ED
:1007E00003B030BD00000020002800F0BB8170B5D0
:1007F00082B00446036813F0010F2ED0934B9B6820
:1008000003F00C03042B1FD0904B9B6803F00C03E8
:10081000082B14D022798D4B9A706368002B40D03E
:10082000FFF7C6FF0546894B1B6813F4003F14D140
:10083000FFF7BEFF401B6428F5D9032099E1834BE5
:100840005B6813F4800FE5D0804B1B6813F4003F06
:1008500003D06368002B00F08781236813F0020F38
:100860004AD07A4B9B6813F00C0F2ED0774B9B68C5
:1008700003F00C03082B23D0E368002B64D0744BE7
:1008800001221A60FFF794FF0546704B1B6813F0B6
:10089000020F4AD1FFF78CFF401B0228F5D9032035
:1008A00067E1FFF785FF0546684B1B6813F4003FBF
:1008B000D3D0FFF77DFF401B6428F5D9032058E112
:1008C000624B5B6813F4800FD6D1604B1B6813F04A
:1008D000020F03D0E368012B40F048815B480368B6
:1008E00023F0F8032169F82292FAA2F2B2FA82F216
:1008F00001FA02F213430360236813F0080F48D093
:1009000063699BB3524B0122C3F8802EFFF750FF5F
:1009100005464E4B5B6F13F0020F3AD1FFF748FFCD
:10092000401B0228F5D9032023E14848036823F03F
:10093000F8032169F82292FAA2F2B2FA82F201FADD
:1009400002F213430360D7E7414B00221A60FFF71E
:100950002FFF05463D4B1B6813F0020FCCD0FFF76D
:1009600027FF401B0228F5D9032002E1384B002263
:10097000C3F8802EFFF71CFF0546344B5B6F13F066
:10098000020F06D0FFF714FF401B0228F5D9032001
:10099000EFE0236813F0040F5FD02C4B1B6C13F0B7
:1009A000805F2CD100230193284B1A6C42F08052B7
:1009B0001A641B6C03F080530193019B0125254BA6
:1009C0001A6842F480721A601B6813F4807F18D092
:1009D000227A1E4B83F87020A36833B3FFF7E8FE3A
:1009E00006461A4B1B6F13F0020F35D1FFF7E0FEDE
:1009F000801B41F288339842F3D90320B9E00025E7
:100A0000DDE7144A136843F480731360FFF7D0FEE8
:100A10000646104B1B6813F4807FD9D1FFF7C8FE40
:100A2000801B0228F5D90320A3E0FFF7C1FE06468C
:100A3000064B1B6F13F0020F0ED0FFF7B9FE801BA1
:100A400041F288339842F3D9032092E00038024003
:100A50000000474200700040EDB9A369002B00F090
:100A600087804B4A926802F00C02082A5BD0022B66
:100A700017D0484B00221A66FFF79AFE0446444BF3
:100A80001B6813F0007F4CD0FFF792FE001B642818
:100A9000F5D903206DE03E4A136C23F080531364B4
:100AA000DBE73C4B00221A66FFF782FE0546384B17
:100AB0001B6813F0007F06D0FFF77AFE401B642806
:100AC000F5D9032055E03248426822F0746222F4DE
:100AD0005F3222F47F7222F00302E369216A0B4342
:100AE000616A43EA8113E16A43EA0163A16A490842
:100AF000013943EA014313434360264B01221A663E
:100B0000FFF756FE0446224B1B6813F0007F06D108
:100B1000FFF74EFE001B6428F5D9032029E00020D2
:100B200027E0002025E0012B25D0194B5B6803F45A
:100B30008001E269914220D103F03F02216A8A429A
:100B40001DD1C3F38812616A8A421AD103F440327C
:100B5000A16A8A4217D103F07063E26A934214D10A
:100B6000002006E001207047012002E0012000E0A3
:100B7000002002B070BD0120FBE70120F9E7012051
:100B8000F7E70120F5E70120F3E70120F1E700BFD7
:100B9000003802400000474208B5254B9B6803F02F
:100BA0000C03042B3FD0082B3FD1214B5A6802F095
:100BB0003F025B6813F4800F12D01D4B5968C1F3DC
:100BC00088111C480023A1FB0001FFF701FB184B13
:100BD0005B68C3F3014301335B00B0FBF3F025E036
:100BE000134B5968C1F3881C4FEA4C11B1EB0C0050
:100BF0006EEB0E0E4FEA8E1343EA90638101091AE1
:100C000063EB0E03DB0043EA5173C90011EB0C0CDC
:100C100043F10003990200234FEA8C2041EA9C51E2
:100C2000FFF7D6FAD3E7034800E0034808BD00BF4A
:100C30000038024040787D010024F400002800F0D4
:100C4000A08070B50D460446524B1B6803F00F039D
:100C50008B4208D2CBB24F4A1370136803F00F03D4
:100C60008B4240F09080236813F0020F17D013F0EE
:100C7000040F04D0484A936843F4E0539360236818
:100C800013F0080F04D0444A936843F46043936020
:100C9000414A936823F0F003A1680B4393602368F3
:100CA00013F0010F31D06368012B20D0022B25D027
:100CB000394A126812F0020F67D037498A6822F069
:100CC000030213438B60FFF773FD0646324B9B68AC
:100CD00003F00C036268B3EB820F16D0FFF768FDD8
:100CE000801B41F288339842F0D9032048E02A4A19
:100CF000126812F4003FE0D1012041E0264A126858
:100D000012F0007FD9D101203AE0224B1B6803F09A
:100D10000F03AB4207D9EAB21E4B1A701B6803F0EF
:100D20000F03AB4233D1236813F0040F06D01A4AE5
:100D3000936823F4E053E1680B439360236813F056
:100D4000080F07D0144A936823F46043216943EAEB
:100D5000C1039360FFF720FF0F4B9B6803F0F00384
:100D6000F02292FAA2F2B2FA82F2D3400B4AD35C9A
:100D7000D8400B4B18600B4B1868FFF7CDFC0020D8
:100D800070BD012070470120FAE70120F8E701203B
:100D9000F6E700BF003C024000380240ACAF00085C
:100DA0000800002004000020014B1868704700BFB5
:100DB00008000020074AD36823F4E0631B041B0CDF
:100DC000000200F4E060034343F0BF6343F40033E8
:100DD000D360704700ED00E000B5194BDB68C3F34A
:100DE0000223C3F1070CBCF1040F28BF4FF0040C21
:100DF00003F1040EBEF1060F18D9033B4FF0FF3E7E
:100E00000EFA0CFC21EA0C0199400EFA03F322EAD7
:100E10000303194300280BDB0901C9B200F160404C
:100E200000F5614080F800135DF804FB0023E5E75E
:100E300000F00F000901C9B2024B1954F4E700BFDA
:100E400000ED00E014ED00E0002807DB00F01F02D9
:100E5000400901239340024A42F82030704700BF06
:100E600000E100E00138B0F1807F0BD24FF0E023C9
:100E70005861054AF02182F823100020986107226A
:100E80001A6170470120704700ED00E070B582B034
:100E9000002365E085685E000324B44025EA04056C
:100EA000CC68B4402C438460446824EA0C0C4C6841
:100EB000C4F300149C4044EA0C04446062E0DD0882
:100EC000083550F8256003F007044FEA840C0F241E
:100ED00004FA0CF426EA040E0C6904FA0CF444EA51
:100EE0000E0440F8254064E0082400E0002404FAE1
:100EF0000EF42C430CF1020C624D45F82C40624C70
:100F00002568D44325EA0206D1F804C01CF4803FCA
:100F100001D042EA05065C4D2E606D6804EA0506C4
:100F2000D1F804C01CF4003F01D042EA0506564D3A
:100F30006E60AD6804EA0506D1F804C01CF4801F99
:100F400001D042EA0506504DAE60ED682C404E6877
:100F500016F4001F01D042EA05044B4AD460013365
:100F60000A6832FA03F400F08A804FF0010C0CFAA0
:100F700003FC1CEA0202F2D04C6804F00304013CBA
:100F8000012C87D94C6804F00304032C0CD0C468EE
:100F90005D004FF0030C0CFA05FC24EA0C0C8C6885
:100FA000AC4044EA0C04C4604C6804F00304022C16
:100FB00085D004684FEA430E4FF0030C0CFA0EFC88
:100FC00024EA0C0C4C6804F0030404FA0EF444EA1E
:100FD0000C0404604C6814F4403FC0D00024019419
:100FE0002A4C656C45F480456564646C04F4804467
:100FF0000194019C4FEA930C0CF10205214C54F82A
:10100000255003F003044FEA840E0F2404FA0EF473
:1010100025EA04051E4CA0423FF468AF04F5806445
:10102000A0421ED004F58064A0421CD004F5806468
:10103000A0421AD004F58064A04218D004F5806460
:10104000A04216D004F58064A04214D004F5806458
:10105000A04212D004F58064A0423FF445AF0924B9
:1010600045E7012443E7022441E703243FE7042442
:101070003DE705243BE7062439E7072437E702B0BC
:1010800070BD00BF00380140003C01400038024004
:10109000000002400AB18161704709048161704714
:1010A000704700F1080343604FF0FF328260C36075
:1010B00003610023036070470023036170474368A6
:1010C0004B609A688A6051609960086103680133D7
:1010D0000360704730B40D68B5F1FF3F11D000F1E7
:1010E00008031C465B681A68AA42FAD963684B6019
:1010F00099608C606160086103680133036030BCF3
:1011000070470469F2E70369416882688A60416850
:1011100051605A68824206D0002202611A68013A80
:101120001A601868704782685A60F5E70346406A9B
:1011300018B11B6B1868C0F10700704710B5044662
:1011400001F0B8FDA26BE36B9A4204D0002401F0D9
:10115000D3FD204610BD0124F9E710B5044601F087
:10116000A9FDA36B23B9012401F0C6FD204610BDE3
:101170000024F9E770B504461546866B026C5AB92F
:1011800003681BB100200136A66370BD406801F002
:1011900097F900236360F6E76DB9806808F0CEFE2A
:1011A000226CA3681344A3606268934219D3236836
:1011B000A3602846E7E7C06808F0C0FE226C5142F1
:1011C000E3689B1AE3602268934202D263680B448F
:1011D000E360022D01D00020D5E726B1013E0020BA
:1011E000D1E72846CFE70020CDE708B50346026CDB
:1011F00062B10846D9681144D960D3F804C061458A
:1012000001D31968D960D96808F098FE08BD38B5CF
:10121000054601F04FFD95F8454064B201E0013C00
:1012200064B2002C0ADD6B6A43B105F1240001F0C1
:101230003FF80028F3D001F0CFF8F0E7FF2385F85E
:10124000453001F059FD01F035FD95F8444064B298
:1012500001E0013C64B2002C0ADD2B6943B105F1C9
:10126000100001F025F80028F3D001F0B5F8F0E700
:10127000FF2385F8443001F03FFD38BD38B5E0B1BB
:101280000D46044601F016FD2368E26B216C01FB5C
:10129000023060600020A063A360013A02FB0133CA
:1012A000E360FF2384F8443084F84530FDB92369B6
:1012B00063B901F021FD012038BD4FF0500383F3E5
:1012C0001188BFF36F8FBFF34F8FFEE704F110005B
:1012D00000F0EEFF0028ECD04FF0E0234FF08052FA
:1012E000C3F8042DBFF34F8FBFF36F8FE1E704F115
:1012F0001000FFF7D6FE04F12400FFF7D2FED8E776
:1013000010B5034602980C4631B90060C36304640B
:101310000121FFF7B3FF10BD0260F7E740B94FF0BE
:10132000500383F31188BFF36F8FBFF34F8FFEE736
:1013300010B584B01C46844653B192B189B94FF0C0
:10134000500383F31188BFF36F8FBFF34F8FFEE716
:101350004FF0500383F31188BFF36F8FBFF34F8FAC
:10136000FEE76AB148230393039B482B13D04FF049
:10137000500383F31188BFF36F8FBFF34F8FFEE7E6
:101380000029EFD04FF0500383F31188BFF36F8F24
:10139000BFF34F8FFEE7012384F8463000949DF899
:1013A00018306046FFF7ACFF204604B010BD40B9CE
:1013B0004FF0500383F31188BFF36F8FBFF34F8F4C
:1013C000FEE7F0B583B00C4615460746A1B101FB18
:1013D00000F0483001F06AFB064650B1002380F867
:1013E000463000902B4600F1480221463846FFF770
:1013F00087FF304603B0F0BD0846EAE7F0B585B098
:10140000019288B10F461D460446B1B1022D20D18C
:10141000E36B012B1DD04FF0500383F31188BFF312
:101420006F8FBFF34F8FFEE74FF0500383F31188A8
:10143000BFF36F8FBFF34F8FFEE7036C002BE5D038
:101440004FF0500383F31188BFF36F8FBFF34F8FBB
:10145000FEE700F0C7FF064658B9019B002B48D0B5
:101460004FF0500383F31188BFF36F8FBFF34F8F9B
:10147000FEE700263DE02A4639462046FFF77AFE81
:10148000636A7BB948B14FF0E0234FF08052C3F854
:10149000042DBFF34F8FBFF36F8F01F02DFC0120A0
:1014A00005B0F0BD04F1240000F002FF0028F4D0E4
:1014B0004FF0E0234FF08052C3F8042DBFF34F8F5D
:1014C000BFF36F8FE9E701F017FC0020E8E702A8FF
:1014D00000F034FF012619E0002384F8443021E0B5
:1014E000002384F8453023E02046FFF790FE00F00B
:1014F000D9FD01F0DFFBA26BE36B9A42BBD3022D57
:10150000B9D0019B002BDED0002EE0D001F0F4FB1F
:1015100000F026FD01F0CEFB94F8442052B2B2F167
:10152000FF3FD9D094F8452052B2B2F1FF3FD7D057
:1015300001F0E2FB01A902A800F00CFFD8B9204697
:10154000FFF7FCFD0028CFD0019904F1100000F056
:1015500097FE2046FFF75BFE00F0A4FD0028C8D1EF
:101560004FF0E0234FF08052C3F8042DBFF34F8FAC
:10157000BFF36F8FBDE72046FFF749FE00F092FDF5
:1015800000208DE748B108B5002141600160C160CD
:101590000B460A46FFF732FF08BD704710B50246FA
:1015A00000210120FFF703FF0446FFF7EBFF204671
:1015B00010BD10B582B00B460090002211460120EC
:1015C000FFF7ACFE0446FFF7DDFF204602B010BD7A
:1015D0002DE9F84390B10F4616461C460546B1B1B9
:1015E000022C20D1EB6B012B1DD04FF0500383F365
:1015F0001188BFF36F8FBFF34F8FFEE74FF050039B
:1016000083F31188BFF36F8FBFF34F8FFEE7036C37
:10161000002BE5D04FF0500383F31188BFF36F8F99
:10162000BFF34F8FFEE701F02FFCEFF311894FF06E
:10163000500383F31188BFF36F8FBFF34F8FAA6BF3
:10164000EB6B9A4206D3022C04D0002089F3118858
:10165000BDE8F88395F845804FFA88F82246394668
:101660002846FFF787FDB8F1FF3F06D008F10103D8
:101670005BB285F845300120E8E76B6A0BB90120C1
:10168000E4E705F1240000F013FE18B126B10120B3
:101690003060DBE70120D9E70120D7E768B170B5FA
:1016A0000C460546036C8BB14FF0500383F3118851
:1016B000BFF36F8FBFF34F8FFEE74FF0500383F3FD
:1016C0001188BFF36F8FBFF34F8FFEE70368EBB155
:1016D00001F0DAFBEFF311864FF0500383F311882A
:1016E000BFF36F8FBFF34F8FAA6BEB6B934226D97B
:1016F00095F845305BB20132AA63B3F1FF3F11D0D8
:1017000001335BB285F84530012019E04368002BB6
:10171000DED04FF0500383F31188BFF36F8FBFF318
:101720004F8FFEE76B6A0BB9012009E005F1240039
:1017300000F0BEFD38B144B10120206000E000207F
:1017400086F3118870BD0120FAE70120F8E7F0B5B3
:1017500085B0019290B10F460446C1B100F042FE3F
:10176000064600BB019B002B5ED04FF0500383F375
:101770001188BFF36F8FBFF34F8FFEE74FF0500319
:1017800083F31188BFF36F8FBFF34F8FFEE7036CB6
:10179000002BE3D04FF0500383F31188BFF36F8F1A
:1017A000BFF34F8FFEE700263EE039462046FFF7A5
:1017B0001CFD013DA563236923B901F09DFA0120B9
:1017C00005B0F0BD04F1100000F072FD0028F4D067
:1017D0004FF0E0234FF08052C3F8042DBFF34F8F3A
:1017E000BFF36F8FE9E701F087FA0020E8E702A86E
:1017F00000F0A4FD012621E0002384F8443029E014
:10180000002384F845302BE02046FFF700FD00F070
:1018100049FC09E02046FFF7FAFC00F043FC2046B3
:10182000FFF79BFC00283FD101F044FAA56B002D87
:10183000BBD1019B002BD6D0002ED8D001F05CFA92
:1018400000F08EFB01F036FA94F844305BB2B3F14D
:10185000FF3FD1D094F845305BB2B3F1FF3FCFD01A
:1018600001F04AFA01A902A800F074FD0028D1D1C4
:101870002046FFF772FC0028C6D0019904F124002D
:1018800000F0FEFC2046FFF7C2FC00F00BFC002835
:10189000CAD14FF0E0234FF08052C3F8042DBFF3BC
:1018A0004F8FBFF36F8FBFE7002089E770B584B01B
:1018B000019158B10446036C8BB14FF0500383F390
:1018C0001188BFF36F8FBFF34F8FFEE74FF05003C8
:1018D00083F31188BFF36F8FBFF34F8FFEE700F0E4
:1018E00081FD054650B9019B5BB14FF0500383F376
:1018F0001188BFF36F8FBFF34F8FFEE70026354689
:1019000055E0064653E0013BA36323683BB12369DE
:101910004BB901F0F1F90126304604B070BD00F07A
:1019200089FE6060F3E704F1100000F0C1FC0028BC
:10193000EFD04FF0E0234FF08052C3F8042DBFF3F7
:101940004F8FBFF36F8FE4E746B14FF0500383F33F
:101950001188BFF36F8FBFF34F8FFEE701F0CCF913
:10196000DAE702A800F0EAFC01252AE0002384F867
:10197000443032E0002384F8453034E001F09AF935
:10198000606800F03FFD064601F0B6F93BE02046F6
:10199000FFF73DFC00F086FB09E02046FFF737FC2F
:1019A00000F080FB2046FFF7D8FB002842D101F071
:1019B00081F9A36B002BA6D1019B002BC4D0002D75
:1019C000CFD001F099F900F0CBFA01F073F994F857
:1019D00044305BB2B3F1FF3FC8D094F845305BB2FE
:1019E000B3F1FF3FC6D001F087F901A902A800F0CA
:1019F000B1FC0028D1D12046FFF7AFFB0028C6D0AC
:101A00002368002BBAD0019904F1240000F038FCBF
:101A10002046FFF7FCFB00F045FB0028C7D14FF044
:101A2000E0234FF08052C3F8042DBFF34F8FBFF374
:101A30006F8FBCE70EB900266EE701F03BF9204638
:101A4000FFF774FB0146606800F094FD01F054F963
:101A5000F1E72DE9F843B0B10D4616460446D9B179
:101A600001F012FAEFF311884FF0500383F311885D
:101A7000BFF36F8FBFF34F8FA76BCFB9002088F3F1
:101A80001188BDE8F8834FF0500383F31188BFF34A
:101A90006F8FBFF34F8FFEE7036C002BE0D04FF04A
:101AA000500383F31188BFF36F8FBFF34F8FFEE7AF
:101AB00094F844904FFA89F929462046FFF795FBA0
:101AC000013FA763B9F1FF3F06D009F101035BB203
:101AD00084F844300120D2E723690BB90120CEE716
:101AE00004F1100000F0E4FB18B126B101203060D1
:101AF000C5E70120C3E70120C1E70000084B1B68D0
:101B00001B6823B9074B4FF0FF321A607047044B34
:101B10001B68DB68DB685A68024B1A60704700BFBD
:101B2000F8020020D00300202DE9F0470746984630
:101B3000089DDDF824900A9C266B02F18042013A50
:101B400006EB820626F007064FF0000CBCF10F0FE3
:101B50000BD811F80C2004EB0C0383F8342011F897
:101B60000C3013B10CF1010CF0E7002384F8433082
:101B7000062D00D90625E56265644FF0000AC4F819
:101B800048A0201DFFF798FA04F11800FFF794FA17
:101B90002461C5F10705A5616462C4F84CA084F80E
:101BA00050A042463946304601F060F82060B9F155
:101BB000000F01D0C9F80040BDE8F08738B5002417
:101BC00007E004EB840293000E481844FFF769FA1B
:101BD0000134062CF5D90C4D2846FFF762FA0B4C60
:101BE0002046FFF75EFA0A48FFF75BFA0948FFF75D
:101BF00058FA0948FFF755FA084B1D60084B1C605E
:101C000038BD00BF00030020A4030020B80300205B
:101C1000D803002004040020F0030020F802002074
:101C2000FC02002010B5044601F044F8214A136874
:101C300001331360204B1B685BB1204B1B686BB9F1
:101C40001D4B1B68DA6AE36A9A4207D81A4B1C607C
:101C500004E0194B1C601368012B28D0184A136844
:101C600001331360E06A01238340164A11680B4375
:101C7000136000EB8000211D134B03EB8000FFF786
:101C80001EFA01F039F80D4B1B687BB10A4B1B683B
:101C9000DA6AE36A9A4209D24FF0E0234FF08052A9
:101CA000C3F8042DBFF34F8FBFF36F8F10BDFFF745
:101CB00085FFD3E78C030020F4020020EC03002012
:101CC0009C030020A00300200003002010B5044660
:101CD00090F8513063B1012B11D0022B0ED04FF090
:101CE000500383F31188BFF36F8FBFF34F8FFEE76D
:101CF000006B00F053FF204600F050FF10BD00F0D5
:101D00004DFFFBE70F4B1B68D3B110B500F0D2FFBE
:101D10000D4BDB68DC68201DFFF7F5F90B4A1368F3
:101D2000013B1360074A1368013B136000F0E4FFB6
:101D30002046FFF7CBFF034B1B68002BE6D110BDFD
:101D4000704700BF90030020040400208C03002093
:101D500008B5FFF7D7FF074B1B68012BF9D94FF0E8
:101D6000E0234FF08052C3F8042DBFF34F8FBFF331
:101D70006F8FEEE70003002070B504460D461D4B43
:101D80001E681D4B18680430FFF7BDF950B91A4B97
:101D90001B68DA6A012303FA02F218490B6823EA86
:101DA00002030B60B4F1FF3F0DD03444124B1B68AB
:101DB0005C60A64210D9124B18680F4B19680431A9
:101DC000FFF788F970BD002DEFD00B4B1968043177
:101DD0000C48FFF774F9F5E70B4B1868064B1968C8
:101DE0000431FFF777F9094B1B68A342EAD9074B87
:101DF0001C60E7E718040020F4020020A003002084
:101E0000FC020020F0030020F8020020D003002094
:101E100030B587B00B9C7CB10C9DB5B154250495B1
:101E2000049D542D1AD04FF0500383F31188BFF353
:101E30006F8FBFF34F8FFEE74FF0500383F311888E
:101E4000BFF36F8FBFF34F8FFEE74FF0500383F365
:101E50001188BFF36F8FBFF34F8FFEE70C9D2C638C
:101E6000022485F8514000240394029505AC0194A6
:101E70000A9C0094FFF758FE0C98FFF7D3FE0598D4
:101E800007B030BD2DE9F04385B0074688461446BB
:101E90001E46900000F00AFE00B38146542000F078
:101EA00005FE0546B0B1C0F83090E5B1002385F8D5
:101EB0005130039302950D9B01930C9B0093334685
:101EC000224641463846FFF72FFE2846FFF7AAFE76
:101ED000012005E0484600F061FEE6E74FF0FF30E4
:101EE00005B0BDE8F0834FF0FF30F9E710B588B0DA
:101EF00000240594069407AA06A905A8FEF7C4FBCA
:101F0000059B0293069B019300942346079A0E4972
:101F10000E48FFF77DFF0E4B186090B14FF0500355
:101F200083F31188BFF36F8FBFF34F8F094B4FF0CF
:101F3000FF321A60084B01221A60084B1C6000F047
:101F400043FF08B010BD00BFBCAF0008511D000822
:101F5000CC030020D0030020EC0300201804002054
:101F6000024A136801331360704700BF98030020D2
:101F7000014B1868704700BF1804002008B500F036
:101F800083FF014B186808BD18040020F8B53A4BD0
:101F90001B68002B64D1394B1D6801351D60C5B924
:101FA000374B1B681B6843B14FF0500383F3118814
:101FB000BFF36F8FBFF34F8FFEE7314A1168314B8C
:101FC000186810601960304A136801331360FFF716
:101FD00095FD2E4B1B68AB4238D900272C4B1B6854
:101FE000DB6A03EB83039A002A4B9B58012B3CD9F5
:101FF00001273AE00127224B1B681B6843B3204BA3
:102000001B68DB68DC6863689D4226D3261D30466A
:10201000FFF779F8A36A1BB104F11800FFF773F812
:10202000E36A01229A401C49086802430A6003EBF4
:1020300083039A00314617481044FFF740F8E26ADC
:10204000134B1B68DB6A9A42D4D2D4E70027D2E74D
:102050000E4B4FF0FF321A60C0E70C4A1360BDE729
:102060000E4A13680133136000270D4B1B6803B140
:1020700001273846F8BD00BF98030020180400204F
:10208000F8020020FC020020D4030020D00300202E
:10209000F402002000030020A0030020940300208D
:1020A0001C04002038B5354B1B6843B94FF0500372
:1020B00083F31188BFF36F8FBFF34F8FFEE700F0FC
:1020C000F9FD2E4B1A68013A1A601B68002B4FD19C
:1020D0002B4B1B680BB900244BE00024294B1B68D9
:1020E0001BB3284BDB68DC6804F11800FFF70BF822
:1020F000251D2846FFF707F8E06A01238340224A9E
:1021000011680B43136000EB800029461F4B03EB63
:102110008000FEF7D4FFE26A1D4B1B68DB6A9A421F
:10212000DCD31C4B01221A60D8E70CB1FFF7E6FCA8
:10213000194B1C6884B9174B1C68D4B14FF0E023CD
:102140004FF08052C3F8042DBFF34F8FBFF36F8F52
:1021500001240EE0013C07D0FFF718FF0028F9D05A
:102160000C4B01221A60F5E70B4B00221A60E2E7E4
:10217000002400F0C1FD204638BD00BF98030020B8
:102180008C030020D8030020A003002000030020BF
:10219000F40200201C0400209403002010B5A8B114
:1021A0000446104B1B6843B14FF0500383F3118872
:1021B000BFF36F8FBFF34F8FFEE7FFF7D1FE002114
:1021C0002046FFF7D9FDFFF76DFF48B94FF0E02338
:1021D0004FF08052C3F8042DBFF34F8FBFF36F8FC2
:1021E00010BD00BF98030020204B1B681BB1204B83
:1021F00001221A6070471E4B00221A601D4B1B689B
:10220000B3FA83F3DBB2C3F11F0303EB83018A004C
:1022100019498A5842B94FF0500383F31188BFF32C
:102220006F8FBFF34F8FFEE7134903EB83008200EC
:102230000A4450684068506003EB830C4FEA8C02FC
:1022400008321144884209D003EB83039A000A4BF9
:1022500013445B68DA68094B1A607047406862464D
:102260009100054A0A445060EEE700BF9803002041
:102270001C040020A003002000030020F402002022
:1022800058B110B50C46094A11681831FEF722FF03
:1022900001212046FFF770FD10BD4FF0500383F37E
:1022A0001188BFF36F8FBFF34F8FFEE7F40200205A
:1022B00038B5C368DC6824B304F118052846FEF776
:1022C00022FF184B1B682BBB251D2846FEF71BFF62
:1022D000E06A01238340144A11680B43136000EB4A
:1022E00080002946114B03EB8000FEF7E8FEE26A0E
:1022F0000F4B1B68DB6A9A4211D901200D4B186005
:1023000038BD4FF0500383F31188BFF36F8FBFF3D5
:102310004F8FFEE729460848FEF7D1FEE7E7002089
:10232000EEE700BF98030020A00300200003002078
:10233000F40200201C040020D8030020034B1B687B
:102340000360034B1B684360704700BFD403002049
:1023500018040020D8B170B50C46054601B300F052
:10236000A9FC1B4B19686B68C81A2268B2F1FF3FC1
:1023700027D0184E3668D5F800C0B44501D08B423E
:1023800024D9824215D80023236001241AE04FF09B
:10239000500383F31188BFF36F8FBFF34F8FFEE7B6
:1023A0004FF0500383F31188BFF36F8FBFF34F8F4C
:1023B000FEE75B1A134423602846FFF7BFFF0024A3
:1023C00000E0002400F098FC204670BD0124F9E7ED
:1023D00018040020D4030020014B01221A6070472A
:1023E0001C040020054B1B6833B1054B1B680BB167
:1023F000002070470220704701207047EC03002046
:1024000098030020002851D038B50446C36A294AF1
:102410001268D26A934241D28269002A05DB254ABA
:102420001268D26AC2F107028261616903EB830319
:10243000214A02EB8303994205D01E4B1B68DB6ADD
:10244000E362012038BD251D2846FEF75CFEA0B1E1
:10245000184B1B68D86AE062012404FA00F3174A9B
:1024600011680B43136000EB80002946124B03EB0D
:102470008000FEF724FE2046E4E7E26A02EB8203D6
:102480009B000D49CB58002BE2D1012303FA02F245
:102490000A490B6823EA02030B60D9E7426C054B3B
:1024A0001B68DB6A9A4203D30020CBE70020704709
:1024B0000120C7E7F402002000030020A003002051
:1024C00000284CD038B50446274B1B68834208D0FF
:1024D0004FF0500383F31188BFF36F8FBFF34F8F1B
:1024E000FEE7836C43B94FF0500383F31188BFF3C9
:1024F0006F8FBFF34F8FFEE7013B8364C16A426C6D
:1025000091422ED00BB1002038BD051D2846FEF7A4
:10251000FAFD70B9E26A02EB82039B001349CB58C3
:102520003BB9012303FA02F211490B6823EA0203C3
:102530000B60606CE062C0F10703A361012404FA40
:1025400000F30B4A11680B43136000EB800029462F
:10255000064B03EB8000FEF7B2FD2046D4E70020D7
:1025600070470020D0E700BFF402002000030020E5
:10257000A0030020002856D038B50446836C43B928
:102580004FF0500383F31188BFF36F8FBFF34F8F6A
:10259000FEE7426C8A4200D20A46E16A914201D0CB
:1025A000012B00D038BD204B1B68A34232D0E26221
:1025B000A369002B02DBC2F10702A261626901EB91
:1025C00081011A4B03EB81018A42EBD1251D28467C
:1025D000FEF799FD70B9E26A02EB82039B00134992
:1025E000CB583BB9012303FA02F211490B6823EAE5
:1025F00002030B60E06A012383400D4A11680B431C
:10260000136000EB80002946084B03EB8000FEF7C7
:1026100056FDC7E74FF0500383F31188BFF36F8F68
:10262000BFF34F8FFEE77047F40200200003002045
:10263000A0030020054B1B6823B1044B1A68936C60
:1026400001339364014B1868704700BFF402002007
:10265000842801D00330704700207047EFF30580D5
:10266000003818BF0120704708B5FFF73FFC002075
:1026700008BD08B5FFF7F2FF10B1FFF77FFC08BDFA
:10268000FFF776FCFBE72DE9F04387B004460F46E1
:102690004569BDB18669AEB1D0F80480D0F800902C
:1026A000B0F90800FFF7D4FF0296019500903B4671
:1026B000226949464046FFF7ABFB0590059807B0F5
:1026C000BDE8F08365682668D4F81080B4F9080086
:1026D000FFF7BEFF05AB019300903B461FFA88F25F
:1026E00031462846FFF7CEFB0128E7D00020E6E779
:1026F00008B500B90120FFF751FD002008BD08B55D
:10270000416819B10120FEF754FF08BD0120FEF712
:1027100045FFFAE730B583B00023019310B30C46B0
:102720000546FFF79BFFA0B101AA00212846FFF74D
:1027300090F9012818D1019BC3B14FF0E0234FF06D
:102740008052C3F8042DBFF34F8FBFF36F8F00206B
:1027500006E021462846FFF7A9F8012808D1002005
:1027600003B030BD8020FBE7FF20F9E70020F7E74A
:10277000FF20F5E710B582B0044600230193FFF770
:102780006DFF98B101A92046FEF788FF01281AD1F4
:10279000019BD3B14FF0E0234FF08052C3F8042DDA
:1027A000BFF34F8FBFF36F8F002008E000231A465E
:1027B00019462046FEF722FE012802D0FF2002B073
:1027C00010BD0020FBE7FF20F9E70020F7E710B578
:1027D00082B044687CB1012903D00024204602B0B5
:1027E00010BD032300932346002211460120FEF76B
:1027F00095FD0446F2E70129F0D1032200210120D2
:10280000FEF7D5FD04460028E8D000231A461946F5
:10281000FEF7F4FDE2E770B582B00023019318B330
:102820000C460646FFF71AFF0546A0B101AA002193
:102830003046FFF70EF9012818D1019D8DB14FF0F8
:10284000E0234FF08052C3F8042DBFF34F8FBFF346
:102850006F8F002505E021463046FFF727F8012855
:1028600006D1284602B070BD8025FAE7FF25F8E7BB
:10287000FF25F6E710B582B0044600230193FFF769
:10288000EDFE98B101A92046FEF708FF01281AD1F4
:10289000019BD3B14FF0E0234FF08052C3F8042DD9
:1028A000BFF34F8FBFF36F8F002008E000231A465D
:1028B00019462046FEF7A2FD012802D0FF2002B0F3
:1028C00010BD0020FBE7FF20F9E70020F7E700B587
:1028D00083B0826842B1C36833B10021009141687E
:1028E0000068FEF71BFD04E0002241680068FEF767
:1028F0005EFD03B05DF804FB30B585B00446019180
:1029000000230393154602B90125FFF7A7FEA8B1DE
:10291000002303AA01A92046FEF75AFE012818D178
:10292000039BC3B14FF0E0234FF08052C3F8042D56
:10293000BFF34F8FBFF36F8F002008E000232A46BC
:1029400001A92046FEF75AFD012806D1002005B056
:1029500030BDFF20FBE70020F9E7FF20F7E770B567
:1029600084B00446029100230193E1B10D4616465E
:1029700000230393FFF772FE00B303AA01A92846C0
:10298000FFF767F8012816D000230093039BFBB1E3
:102990004FF0E0234FF08052C3F8042DBFF34F8F68
:1029A000BFF36F8F14E0802300936B4693E807001A
:1029B00084E8070011E010230093E7E7324601A9FD
:1029C0002846FEF7C4FE01280AD006B1402600962C
:1029D0006B4693E8070084E80700204604B070BD0A
:1029E00010230093F4E70000124A12F0070F1ED0E4
:1029F000D11D21F00701C1F5705313440A460E485A
:102A00000260002141601344083B23F007030B4898
:102A1000036059601960991A51601360084B19607E
:102A2000084B1960084B4FF000421A6070474FF492
:102A30007053E4E7240400203040002020040020EC
:102A40002C4000202840002024400020154B1A462E
:102A50001B688342FBD3516802EB010C844509D00B
:102A6000416800EB010C634509D00360904218D027
:102A7000106070474068014451601046F0E710B4A0
:102A8000094C2468A3420AD05B681944416013686A
:102A90001B680360904200D0106010BC7047046057
:102AA000F8E77047304000202004002070B505464C
:102AB000FFF756FA344B1B68A3B1344B1B681D4219
:102AC0004AD135B1083515F0070F02D025F00705BA
:102AD0000835002D42D02E4B1B68AB424DD32D4AFA
:102AE000146804E0FFF780FFE7E722461C466368AE
:102AF000AB4202D22368002BF7D1234B1B68A342C1
:102B00003DD0166808362368136063685B1B102B82
:102B100010D9601910F0070F08D04FF0500383F35D
:102B20001188BFF36F8FBFF34F8FFEE7436065607F
:102B3000FFF78CFF626816490B689B1A0B601649F9
:102B400009688B4201D214490B60104B1B68134378
:102B500063600023236002E0002600E00026FFF708
:102B6000A1FA16F0070F0CD04FF0500383F3118831
:102B7000BFF36F8FBFF34F8FFEE70026EFE700260E
:102B8000EDE7304670BD00BF200400202440002047
:102B900028400020304000202C40002080B338B571
:102BA0000446A0F1080550F8043C164A1268134286
:102BB00008D14FF0500383F31188BFF36F8FBFF339
:102BC0004F8FFEE750F8081C41B14FF0500383F3DC
:102BD0001188BFF36F8FBFF34F8FFEE723EA020325
:102BE00040F8043CFFF7BCF954F8041C064A13688B
:102BF0000B4413602846FFF729FFFFF753FA38BD4F
:102C0000704700BF244000202840002082B00023ED
:102C100001930D4B1B68B3F1FF3F08D04FF05003F9
:102C200083F31188BFF36F8FBFF34F8FFEE74FF031
:102C3000500383F31188BFF36F8FBFF34F8F019B56
:102C4000002BFCD002B070470C0000200648006842
:102C5000006880F3088862B661B6BFF34F8FBFF398
:102C60006F8F00DF00BF000008ED00E04FF08073C1
:102C700040F8043C21F0010140F8081C034B40F8E7
:102C80000C3C40F8202C4038704700BF0D2C000849
:102C9000074B19680868B0E8F00F80F30988BFF3A4
:102CA0006F8F4FF0000080F311884EF00D0E7047CB
:102CB000F40200204FF0500383F31188BFF36F8FAD
:102CC000BFF34F8F0B4A136801331360012B00D001
:102CD00070474FF0E023D3F8043D13F0FF0FF7D017
:102CE0004FF0500383F31188BFF36F8FBFF34F8F03
:102CF000FEE700BF0C000020094B1B6843B94FF0F2
:102D0000500383F31188BFF36F8FBFF34F8FFEE73C
:102D1000013B034A13600BB983F31188704700BF6E
:102D20000C00002000000000000000000000000077
:102D3000EFF30980BFF36F8F0D4B1A6820E9F00F96
:102D400010602DE908404FF0500080F31188FFF724
:102D50004BFA4FF0000080F31188BDE80840196875
:102D60000868B0E8F00F80F30988BFF36F8F7047F1
:102D7000F402002008B54FF0500383F31188BFF32D
:102D80006F8FBFF34F8FFFF701F928B14FF0E023AA
:102D90004FF08052C3F8042D002383F3118808BD3F
:102DA0004FF0E022002313619361054B1B68054936
:102DB000A1FB03139B09013B536107231361704778
:102DC00008000020D34D621010B582B02A4B1A784B
:102DD000D2B20192FF221A701B78DBB28DF8033059
:102DE0009DF8033003F05003244A1370244B07224C
:102DF0001A6009E0224A1368013B13609DF8033012
:102E00005B00DBB28DF803309DF8033013F0800FC8
:102E1000F0D11B4B1B68032B08D04FF0500383F3FA
:102E20001188BFF36F8FBFF34F8FFEE71B02144A69
:102E3000136003F4E0631360019BDBB20E4A13706E
:102E40004FF0E023D3F8202D42F47002C3F8202D78
:102E5000D3F8202D42F07042C3F8202DFFF7A0FFD9
:102E60000024084B1C60FFF7F1FEFFF7BDF9FFF7E8
:102E7000CDFE204602B010BD00E400E03840002046
:102E80003C4000200C000020EFF305830F2B0FD9EE
:102E9000114A9B5CDBB2114A12789A4208D94FF072
:102EA000500383F31188BFF36F8FBFF34F8FFEE79B
:102EB0004FF0E023D3F80C3D03F4E063084A1268B6
:102EC000934208D94FF0500383F31188BFF36F8FFB
:102ED000BFF34F8FFEE77047F0E300E0384000207B
:102EE0003C400020F0B58FB04D4FC0233B70A8236D
:102EF0007B707C23BB706F23FB704A4EFF233370C3
:102F00007370B3700024F470474D2C706C70AC700B
:102F1000EC702146204601F04DFA3A787B781B048C
:102F200043EA0263BA7843EA0223F9780B431A02B0
:102F300002F47F0242EA0162190A01F47F410A4366
:102F400042EA136339490B60327873781B0443EA11
:102F50000263B27843EA0223F07803431A0202F4D0
:102F60007F0242EA0062180A00F47F40024342EA0C
:102F700013632F4A136028786B781B0443EA0063BD
:102F8000A87843EA0023ED782B43180200F47F0071
:102F900040EA05601D0A05F47F45284340EA1360B6
:102FA000244B1860244D2548029025480190009438
:102FB000284604F0EFFB284604F02EFC95F82F304D
:102FC00013F0040F24D01F4B01221A60284604F08E
:102FD00029FC194C1C49204604F06DFC00230C937D
:102FE0000D9301210CA8FFF7F2FB184B1860184E47
:102FF0003460706005AC174D0FCD0FC495E8070025
:1030000084E80700314605A8FFF73DFB0FB0F0BD8F
:103010000C4B00221A60084804F016FCD9E700BFE8
:103020004440002048400020404000208C400020C8
:103030009840002084400020504000202143000898
:103040004D34000888400020ED3400084C4000203A
:10305000904000205CAF00082DE9F047324800F0B6
:1030600047FD00285CD1304B998FD3F8408029B9B7
:103070004FF0000A2C4B1B6B00213AE00322042086
:1030800004F0B8FF82460028F4D0274B1F6B81461E
:10309000002421E0D9F80400C4F5BE62043208EB34
:1030A0000401304406F04AFFFF68D7F80880A5F213
:1030B000F452361B06F2F4560024A51840F2F453DD
:1030C0009D42E7D8D9F8040008EB0401304406F02B
:1030D00035FFD9F800902C46B9F1000FCAD0B9F8E5
:1030E0000A200026E9E71A6842F000421A60DB680D
:1030F00001310D4A926B8A42F5D80B4B00229A633C
:103100001B6803F58052526912F0800F05D003F559
:10311000805380225A6100229A605046BDE8F087B1
:103120004FF0000AF9E700BF3C71002038B50546B2
:103130004FF0FF310E4B1868FFF76DFB0028F7D1F9
:1031400004E00C4806F06CFE002CF1D0094806F0B3
:1031500060FE2846FFF780FF04460028F1D02B6967
:10316000294698470028ECD0204604F0D9FEE8E72D
:1031700084710020887100202DE9F84F8B462B4B7D
:10318000DE6AD6F808A000242746BBF1000F32D033
:103190003368002B35DBBBF80A90002504EB0908E7
:1031A00040F2F453984519D9DBF80410C4F5BE6217
:1031B000043229440AEB040006F0C0FEF6683368C6
:1031C000002B21DBD6F808A0A8F2F4592D1B05F23C
:1031D000F4553F1B07F2F4570024DFE7DBF8041037
:1031E0004A4629440AEB040006F0A8FE4F44DBF8E7
:1031F00000B04446C9E739460C4800F0E5FB002022
:1032000004E06FF0070001E06FF00700074B1B6858
:1032100003F58052526912F0200F05D003F5805358
:1032200020225A6100225A60BDE8F88F3C710020CC
:1032300070B58CB004463948394B036000234360B5
:103240004FF4804282604FF40062C2601F2202820B
:103250008DF8283080228DF82920E1228DF82A204F
:103260008DF82B308DF82C308DF82D300AAA426164
:1032700001228261C361036200F046FD28B994F81F
:103280002F3043F0040384F82F30244E0423254AC2
:103290002549304600F01AFB0423244A24493046CD
:1032A00000F054FB062384F8283073691A7884F8F8
:1032B00029205A7884F82A209A7884F82B20DA7802
:1032C00084F82C201A7984F82D205B7984F82E302C
:1032D00040F2DC53E38494F82F3043F00A0384F87F
:1032E0002F30002308930993012108A8FFF76FFAF4
:1032F000104B18600DF1040C0F4D0FCDACE80F0012
:1033000095E807008CE80700214601A8FFF7BBF904
:10331000304600F019FE0CB070BD00BF3C710020BB
:10332000008002406C5900201C4100209C4100207C
:103330009C4000208471002078AF0008F0B58DB06B
:1033400000230793089309930A930B930268374B62
:103350009A4201D00DB0F0BD00240194A3F5904332
:103360001A6B42F000721A631A6B02F0007201923B
:10337000019A02941A6B42F080621A631A6B02F08F
:1033800080620292029A03941A6B42F000621A63FE
:103390001A6B02F000620392039A04941A6B42F0D3
:1033A00004021A631A6B02F004020492049A059450
:1033B0001A6B42F001021A631A6B02F001020592C5
:1033C000059A06941A6B42F002021A631B6B03F013
:1033D00002030693069B3E230793022708970326C2
:1033E0000A960B250B9507A91148FDF74FFD86237B
:1033F0000793089709940A960B9507A90D48FDF7BE
:1034000045FD43F603130793089709940A960B9515
:1034100007A90948FDF73AFD224605213D20FDF7A1
:10342000DBFC3D20FDF710FD94E700BF008002406B
:1034300000080240000002400004024008B5024BB0
:103440001868FFF717FA08BD8471002010B504460C
:1034500070B1732384F83030742384F83130084B12
:103460006361084BA3612046FFF7E2FE002010BD18
:10347000054B40F22E220549054806F075FDE8E7A8
:103480000194000879310008D4AF0008F0AF0008BB
:1034900000B0000808B5FDF78BF908BD10B582B083
:1034A00004460023019306E012F0040F00D0B3B1EC
:1034B000C820FFF71DF901AA01210A4800F0AEFB60
:1034C000019B03F004030193206890F82F2012F071
:1034D000040FE9D1002BE7D004F0C7F9E8E704F0C6
:1034E000DCF9E5E73C7100207047000030B583B09F
:1034F000044600230193009390F82F3013F0040F3B
:1035000051D02B4B5B68002B35D04FF480520021FB
:10351000274800F0BFFBFDF74BF901906A460121F7
:10352000234800F07BFBFDF743F9019BC31AB3F579
:103530007A7F20D8009B13F0200FEFD06A4610212D
:103540001B4800F06BFB009B13F0040F0AD0184AD5
:103550004FF40061D16013F0020F07D0144B00222A
:103560009A6013E0124A0021D160F4E7104B4FF447
:1035700080429A600AE00E48C268C2F3CF028368B4
:10358000C3F34F031A43002100F084FB084D0021D0
:10359000284600F01DFD284600F0D6FC2046FFF727
:1035A000A3FF03B030BD024800F0F0FCF6E700BF17
:1035B0003C7100205079137943EA002307480B50EF
:1035C000D07893781B0443EA0063507843EA0023E1
:1035D00012781343024A8B50704700BF408002406C
:1035E00044800240036803F580539A6942F4005214
:1035F0009A617047036803F580539A6922F4005278
:103600009A617047036803F580539A6942F0020299
:103610009A617047036803F580539A6922F00202A9
:103620009A61704782B0084B1B68084AA2FB0323CB
:103630005B0A00FB03F3019300BF019B5A1E01923A
:10364000002BF9D102B0704708000020D34D621062
:1036500010B582B00446002301930268136843F05A
:103660000803136003681B6801930120FFF7DAFF6A
:103670002368019A1A6002B010BD10B582B00446EA
:10368000002301930268136843F004031360036886
:103690001B6801930120FFF7C5FF2368019A1A6098
:1036A00002B010BD10B582B0044600230193036838
:1036B00003F580539A6942F480129A61036803F516
:1036C00080539B6901930120FFF7ACFF2368019AA7
:1036D00003F580539A6102B010BD10B582B0044664
:1036E000002301930268136823F004031360036846
:1036F0001B6801930120FFF795FF2368019A1A6068
:1037000002B010BD10B582B00446002301930268D8
:10371000136823F00803136003681B6801930120FA
:10372000FFF780FF2368019A1A6002B010BD000005
:103730002DE9F041AEB0054629B14FF40063C360F6
:103740004FF48043836000231193129313931493D7
:1037500015931693EB69002B40F0A5804FF480631E
:1037600017934FF400731893002419941A941B9420
:103770001C941D9440271E971F94209421942294FA
:10378000239424942594269480262796289429947B
:103790002A942B942C942D9429680B68484A1A403B
:1037A000AB68E86803431798034343F4007313437B
:1037B0000B602B68D3F800800120FCF7FFFF2B681B
:1037C000C3F800802B685F602B685F680120FCF7FE
:1037D000F5FF2B685F602B689C602B68DC602A68B3
:1037E000936923F0BE031B041B0C334393612B68C6
:1037F0009F690120FCF7E2FF2B689F612B68DC6169
:103800002B68DF690120FCF7D9FF2B68DF61019489
:103810004FF00073029303944FF400120492059446
:10382000069407940894042209920A934FF4803373
:103830000B934FF480030C934FF400530D930E96AB
:103840000F9410942A6802F5805291691D4B0B4029
:1038500043F0087343F0040393612B6803F580532E
:103860009C690120FCF7AAFF2B6803F580539C613B
:103870002B6803F58053144A1A602B6803F58053B4
:103880001C680120FCF79AFF2B6803F580531C602D
:10389000AB69012B0AD06A6900212846FFF78AFE2E
:1038A0002EB0BDE8F081002317935AE72A6802F58D
:1038B0008052D36943F4803343F04003D361EAE795
:1038C0000F8120FF233FDEF88020C10230B590F841
:1038D0004540012C38D0012480F84540022480F86E
:1038E0004440C1624FF0000C03E0CEF80C100CF124
:1038F000010C9C451CD24FEA4C1501EB4C1E4FF4B9
:1039000080144C5140F2F45404FB0C24CEF80840CF
:10391000C4691CB94C5944F440044C515C1E6445C4
:10392000E3D90CF1010401EB4414CEF80C40DEE7BE
:10393000036803F580531961012380F844300023A4
:1039400080F84530184630BD0220FCE730B590F8CD
:103950004540012C36D0012480F84540022480F8EF
:10396000444081624FF0000C03E0CEF80C100CF1E3
:10397000010C9C451AD24FEA4C1401EB4C1E4FF03F
:1039800000450D5144F2F454CEF8044040F2F45492
:1039900004FB0C24CEF808405C1E6445E5D90CF10C
:1039A000010401EB4414CEF80C40E0E7036803F592
:1039B0008053D960012380F84430002380F84530DB
:1039C000184630BD0220FCE790F84530012B00F08E
:1039D0008980012380F84530022380F84430C9B142
:1039E000C36A1A68002A1DDB10B440F2F4529142F7
:1039F00020D93D4AA2FB012C4FEA9C2C40F2F45204
:103A000002FB1C120AB10CF1010CBCF1010F11D028
:103A1000002349E0012380F84430002280F845204B
:103A200018467047122380F84430002380F8453050
:103A3000012070471A6842F040521A60C36AC1F30D
:103A40000C015960C26A136843F000431360C36AF3
:103A5000DB68C362036803F58052526912F0040FF9
:103A600008D003F5805304225A61036803F580539C
:103A700000225A60012380F84430002380F845304A
:103A8000184610BC7047C26A40F2F45454600CF1FE
:103A9000FF329A4217D0C46A226842F00042226084
:103AA000C26AD268C26201339C45D3D9C46A226813
:103AB00022F040522260002BE5D1C46A226842F015
:103AC00080522260DFE7C46A226842F0005222601E
:103AD000064A02FB0C1202F2F452C46AC2F30C0250
:103AE0006260D8E7022070470BB002AC0CFAFFFF0F
:103AF00090F84530012B45D0012380F84530022352
:103B000080F84430002104E0036301228263DB6813
:103B10008362836A1A68002A2CDB03292AD80131C0
:103B20001A6802F44072B2F5007FEDD01A6812F400
:103B3000407F05D1826B01328263DB688362E8E7F4
:103B40004363826B01328263012A11D01A68C2F387
:103B50000D42043AC263026B92680264DB688362BE
:103B6000012380F84430002380F845301846704720
:103B70000363EBE7012380F84430002280F84520FE
:103B800018467047022070477047704710B50446CA
:103B9000036803F58052526912F0400F13D103F508
:103BA00080535B6913F0010F1BD1236803F5805329
:103BB0004FF480325A61236803F580535B6913F434
:103BC000004F1BD110BDFFF739FC236803F580536C
:103BD00040225A61012384F84430002384F84530A0
:103BE000E3E7FFF7D1FF236803F5805301225A6111
:103BF00084F84420002384F84530D6E72046FFF7B8
:103C0000C4FF236803F580534FF400425A61012337
:103C100084F84430002384F84530D3E7F8B590F8B1
:103C20004430DBB2822B33D005461646822380F81F
:103C300044300068026902F01C022B8ADB029BB24E
:103C400013438C0104F4F8641C4344F00104046140
:103C5000FCF7AEFD074601E02B681C6914F0010F6C
:103C60000DD0FCF7A5FDC31BB3F5803FF4D30123B2
:103C700085F84430002385F84530032007E02B68A1
:103C80005B699BB23360012385F844300020F8BDA6
:103C90000220FCE790F84430DBB2422B32D070B502
:103CA0000546422380F844300668306900F01C0065
:103CB0002B8ADB029BB203438C0104F4F8641C439F
:103CC00044F0030492B272612B681C61FCF770FD32
:103CD000064601E02B681C6914F0010F0DD0FCF7BB
:103CE00067FD831BB3F5803FF4D3012385F844308F
:103CF000002385F84530032003E0012385F8443094
:103D0000002070BD0220704770B582B0002301937F
:103D1000002800F00681044690F84430002B34D08F
:103D200000230093804B5A6C42F480425A645B6CCF
:103D300003F480430093009B7C4B5A6822F40002FA
:103D40005A605A68216A0A435A60236803F580530F
:103D50001A6842F001021A60FCF72AFD0546236842
:103D600003F58052126812F0010F13D0FCF720FD0A
:103D7000401BB0F5FA7FF2D9032584F844500023A4
:103D800084F84530284602B070BD80F84530FFF712
:103D9000D5FAC5E71D6925F01C05FDF705F8644B4C
:103DA0000344644A934255D245F0080523681D61D7
:103DB0004FF4004200212046FFF76CFF0546002823
:103DC00058D1FF20FCF7FAFC6368002B00F08980D3
:103DD000FCF7EEFC064601AA01212046FFF71EFF74
:103DE000FCF7E6FC801B41F2883398424AD8019BDD
:103DF00013F0040FEFD04FF4805200212046FFF75C
:103E000049FF00284AD1FCF7D3FC064601AA01214C
:103E10002046FFF703FFFCF7CBFC801B41F2883301
:103E2000984243D8019B13F0200FEFD001AA102134
:103E30002046FFF7F3FE002844D1019B13F0040F46
:103E400048D04FF40062E26013F0020F45D0002327
:103E5000A36056E0384B0344384A934202D845F0F9
:103E60000C05A3E7364B0344364A93429ED345F0F4
:103E700004059BE701212046FFF75AFC012584F841
:103E800044507FE701212046FFF752FC012384F8CC
:103E90004430002384F84530032573E70121204690
:103EA000FFF746FC012584F844506BE701212046CA
:103EB000FFF73EFC012384F84430002384F84530AA
:103EC00003255FE701212046FFF732FC012584F836
:103ED000445057E70022E260B6E74FF48043A36006
:103EE0000FE0E268C2F3CF02A368C3F34F031A43A3
:103EF00000212046FFF7CEFE58B940F6FF70FCF7D0
:103F00005DFC00212046FFF713FC012384F84430B8
:103F100038E701212046FFF70BFC012584F84450C7
:103F200030E701252EE700BF00380240003801408D
:103F300000D3CEFEC0E1E40040F1E9FD3F787D0111
:103F400000796CFC005A620238B590F84530012BBC
:103F50001AD00446012580F84550022380F84430E9
:103F6000FFF776FB2046FFF788FB2046FFF79AFB1A
:103F70002046FFF737FB2046FFF744FB84F8445008
:103F8000002084F8450038BD0220FCE738B590F8E1
:103F90004530012B1AD00446012580F845500223F4
:103FA00080F84430FFF726FB2046FFF733FB20461E
:103FB000FFF793FB2046FFF775FB2046FFF7A2FBB8
:103FC00084F84450002084F8450038BD0220FCE706
:103FD00090F84530012B00F08E8070B505460C46F8
:103FE000012380F84530022380F84430002971D045
:103FF0000268136841491940236860680343A06858
:104000000343E0680343A8680343206903436069EE
:104010000343E8680343A0690343E0690343206A5C
:104020000343606A0343A06A03430B4313602B6896
:104030001E680120FCF7C2FB2B681E60E36A226B3E
:104040001343626B1343A26B1343E26B1343226C63
:104050001343626C1343A16C2A680B4353602B68B3
:104060005E680120FCF7AAFB2B685E602B68E26C9F
:104070009A602B68226DDA6029688A6922F0BE0294
:104080001204120C606DA36D43EA0043E06D03431C
:10409000206E0343606E0343A06E034313438B61A2
:1040A0002B689E690120FCF789FB2B689E61E36EFB
:1040B000216F2A680B43D3612B68DC690120FCF770
:1040C0007DFB2B68DC61012385F84430002085F8F6
:1040D000450070BD01680A6822F490428368C06898
:1040E000034313430B602B681C680120FCF766FB3D
:1040F0002B681C60E7E70220704700BF0F8120FF9C
:10410000F8B5044646890E2E16D90D4640688789B3
:10411000037813F0010F0AD0012B12D00622214997
:1041200005F0FCFE18B9637B43F008036373082FA6
:1041300012D0B7F5C16F22D0204603F0F1FE002067
:10414000F8BD4378002BF2D183785E2BEFD1637BEF
:1041500043F010036373EAE795F82F3013F0080F6C
:10416000EAD00D2EE8D96FF00D01204603F0CEFE07
:104170000028E1D12946204604F0CCFBDFE795F882
:104180002F3013F0080FD7D00D2ED5D96FF00D01B9
:10419000204603F0BBFE0028CED12946204604F07D
:1041A00037FFCCE790B000082DE9F04105460C46FA
:1041B00016461F46BDF8180002F0CAFA80460E21C6
:1041C000204603F0A3FEE8B96168A1F80C803B68C3
:1041D0000B60BB888B803368C1F80630B3884B8195
:1041E00095F82830062B05D1AB692146284698471B
:1041F000BDE8F081054B40F22B120549054805F05A
:10420000B3FEF1E76FF00100F2E700BF28B000084D
:104210005CB0000800B0000800B583B0204B1B68FC
:1042200013B1204A106898471F4805F0F2FD05E0D9
:104230001E4B69221E491F4805F096FE1A4C204667
:1042400005F0EEFD01A91C4803F01EFA204605F01A
:10425000E0FD019B002BEBD01A78032A13D0042A2F
:1042600019D0022A06D0114B9B221149114805F0A2
:104270007BFEE3E7DA68996858689047019909205E
:1042800004F0E2F9DAE75A68986890470199082043
:1042900004F0DAF9D2E75A6898689047CEE700BF91
:1042A000907100209471002088710020A0B0000857
:1042B000D0B0000800B000088C710020F8B50746A7
:1042C0000E461546124805F081FD78B1092004F02C
:1042D000A1F90446C0B10223037047608660C5603F
:1042E00001460B4805F03CFD38B9F8BD094BB52235
:1042F00009490A4805F038FEE8E72146092004F09C
:10430000A3F94FF0FF30F0E74FF0FF30EDE700BFCB
:104310008C710020A0B00008F0B0000800B00008C8
:1043200008B591F82F3013F0180F03D0034AFFF7A8
:10433000C5FF08BD024AFFF7C1FFFAE701410008C7
:1043400015890008F8B507460E461546154805F0CC
:104350003DFD78B1082004F05DF90446F0B1032377
:1043600003704760866065B101460E4805F0ECFCBD
:104370000020F8BD0C4BEE220C490D4805F0F4FD71
:10438000E8E70146074805F0EBFC0028F1D021469C
:10439000082004F059F94FF0FF30EAE74FF0FF3002
:1043A000E7E700BF8C710020A0B00008F0B0000863
:1043B00000B0000830B583B005460C4601F004FD9E
:1043C000134B1D60134B1C600621134805F0A8FC1D
:1043D00068B9124805F00CFD88B9002200924FF42C
:1043E00080630F490F4805F020FD03B030BD0E4B30
:1043F00040F2D5120D490E4805F0B6FDE9E70A4B2B
:1044000040F2D9120B490A4805F0AEFDE5E700BFBE
:1044100090710020947100208C7100208871002020
:104420001942000848B10008A0B0000800B1000817
:1044300000B0000824B1000813466AB1A8B10368AF
:10444000ABB1114A5269B2F1FF3F12D089685340B3
:104450000B4210D00020704778B102687AB10A4947
:1044600049698A420DD018467047012070470120E3
:1044700070470120704701207047012070470120DC
:1044800070470120704700BF107200207047000085
:104490002DE9F04F85B081464389072B17D90F4688
:1044A0004468434B1968586904F0A1FB8046208892
:1044B00002F04EF98246608802F04AF905463D4B0B
:1044C0001B6803931C464FF0000B5E4609E003F0A7
:1044D00027FD05B0BDE8F08FA38A534515D02646C9
:1044E000E468FCB1638AAB42F9D1424639462046C2
:1044F000FFF7A2FF0028F2D0237C13F0040FEBD1CA
:10450000BBF1000FE8D1A346E6E763681BB1284A78
:1045100012699342E3D12EB1E368F360039BE36039
:10452000244B1C608CB194B16FF00701484603F036
:10453000EDFCA8B91CB3A569EDB1E069CDF800A008
:104540001D4B4A462146A847C3E75C46EBE77A681D
:10455000174B5B699A42E7D0484603F0E1FCB8E7A5
:10456000164B40F255121649164805F0FDFC484618
:1045700003F0D6FCADE7484603F0D2FCA9E7B8F15A
:10458000000F05D10A4B5B6903F0F003E02B03D168
:10459000484603F0C5FC9CE7054B9989083109B2F0
:1045A000484603F0B8FC0321484604F057F9EFE70A
:1045B00010720020987100202072002058B100086D
:1045C00084B1000800B00008024688B103687BB1DE
:1045D00071B10B6863B1074B1B6800E0DB683BB14E
:1045E0001068D3F800C08445F8D108681860F5E772
:1045F000704700BF987100200E4B196829B10E4B0F
:104600001B880E4A1288934208D20D4B1B680A4938
:104610000A88501C08801344187D704703F1010C70
:104620000548A0F800C0DBB2D2B29B1ADBB2C85C6E
:10463000704700BFD4710020C8710020D0710020E5
:10464000CC71002038B51F4B1B88002B38D0044696
:104650001D4B00221A801C4B1A881A4B1B889A4249
:104660002ED2FFF7C9FF0128F5D002280BD038B3AE
:10467000FFF7C2FF0346012822D9134A10880344DA
:10468000023B1380E7E7FFF7B7FF042818D10E4B72
:104690001B8801330B4A1288934211DAFFF7ACFFF3
:1046A00085B22D02ADB2FFF7A7FF80B205436B1EA6
:1046B0009BB2B3F5067F01D34FF406756586CAE752
:1046C00038BD00BFD8710020C87100200E4B1B7888
:1046D00013F0100F01D10020704710B50446837EFF
:1046E00013F0100F06D1D0F88C301BB16FF00E0113
:1046F000006998472146054802F078FB21460120D1
:1047000003F0A2FF012010BDBC710020DC7100206D
:104710001C4B1B7813F0040F32D110B582B013F08C
:10472000020F1FD0184B1968436ACA1A002A04DB0B
:10473000028D1344CB1A002B04DD144B1B88C3B924
:1047400002B010BD124B1A68124B10480088148832
:104750000194528800921A1D01440F48006801F02C
:104760009DFEEDE713F0010FE7D00C4B1B680362D1
:10477000E3E7837E43F00203837601F047FDDFE742
:10478000704700BFA0710020C0710020DA710020C6
:10479000CC710020207200209C710020EC71002060
:1047A0003C4B1B7813F0040F72D1F0B583B0054673
:1047B00013F0100F04D113F0020F13D103B0F0BDAA
:1047C000354B1A68354B36490888364909681488CC
:1047D0000194528800921A1D01443348006801F088
:1047E0005DFEEBE7407D02F0A5FD0446002841D0C8
:1047F0002E4B5A6902601B694360EB8AC382264EC6
:1048000033681B88038303230375264F3B680133FA
:104810004362C36202F0EEFD6065E0646064A0651F
:104820003B68013B23652B692361A5672B7A03F065
:104830000C0323721E4B1A68E2601C6002F0C4FE77
:104840001C4B01221A702046FFF7FCFE3368DB89FF
:10485000A4F85C30A4F85E30211D608E02F0D6FD15
:1048600060861221204601F0C3FB60B9204601F0AA
:10487000CDFCA3E7AB69002BA0D04FF0FF320021A5
:10488000286998479AE70021204602F04FFC95E7F7
:10489000704700BFA0710020CC7100202072002062
:1048A000DA710020C07100209C710020107200207D
:1048B000DC710020E071002070B505460C46C3682D
:1048C000988901F045FF10F0010F0AD0204602F050
:1048D00048F800242C6070BD2668204602F034F8A9
:1048E0003446CCB12B89154A12681344E1684A68F2
:1048F000208902449B1A002B0EDB888901F028FFD7
:1049000010F0010FE8D0EB689E89012001F020FF34
:10491000EB6806439E81DFE7002CDBD02B89074A3A
:1049200011680B44E26852689B1A002BD2DD521AC0
:1049300091B22981686803F04DFCCBE7C07100207B
:10494000F8B50446037D032B79D9904B1B7813F0FF
:10495000100F00F09F81B4F85C00626D8618216D25
:104960008B4B1B68CD1A002D7CDB99426FD0894997
:1049700009688A4271D0874B1B68616C5A1A002AF9
:1049800040F39580012A04D4E26C9A1A002A40F37D
:10499000BE80204601F000FCA36E002B00F06B816E
:1049A0007C4A1668DB68586801F0D5FE0546A36EA0
:1049B0001F89DB68988901F0CBFE10F0030F00F02F
:1049C0005881012007443D44751B002DC0F25381DE
:1049D000704B1B68E26C9B1A002B00F34C81A56E98
:1049E0002B68A366002B00F03981B4F86260686818
:1049F00003F068FC8642C0F03481686803F062FC12
:104A0000B4F862301B1AA4F862302B89624A11880C
:104A10000B441380284601F097FFB4F86230002B56
:104A2000BAD0E36E002BB7D1A36E002BB4D15B4B91
:104A300040F2DC425A495B4805F096FAACE7574B26
:104A40004FF481625849574805F08EFA7DE7514985
:104A50000968511A00298ADA04E0544A1268D28996
:104A6000904288D2514A1268D28991B2A4F85C204F
:104A7000B4F85E00814201D9A4F85E202365454B5D
:104A80001B68636551B994F89530002B7FF473AFC0
:104A900084F89430012384F895306CE794F89530CD
:104AA000002B3FF468AF002384F8953063E7404A59
:104AB00012882AB9626DB4F85C000244B24203D095
:104AC000002384F8433067E7B4F93020002AF7DB8D
:104AD0008B42F5D194F84330FF2B02D0013384F898
:104AE000433094F84330032B0AD9B4F84820638E3E
:104AF00013449BB29A42BFF44FAFA4F848304BE73F
:104B0000032B7FF449AF204601F061FD44E7A27E0C
:104B100012F0040F06D022F00402A276B4F84A2064
:104B2000A4F84820002184F84210B4F93C00E28F38
:104B300002EBE002A4F8402084F843106364237D74
:104B4000032B40D9B4F84820B4F84A309A4207D22F
:104B5000638E13449BB29A4235D2A4F8483032E0B7
:104B6000638E03FB03F393FBF2F39BB213449BB2FC
:104B70009A4228D2A4F8483025E0084B40F29E42E1
:104B80000C49084805F0F0F940E000BFA071002092
:104B9000C07100209C710020B471002098B1000801
:104BA0000CB2000800B00008C8B10008CC710020A9
:104BB000DA710020E4B10008954B40F2A642954915
:104BC000954805F0D1F9E36E002B3CD0DB685868BE
:104BD00001F0C1FD0546E36E1E89DB68988901F08E
:104BE000B7FD10F0030F2CD001231E4435448B4B2E
:104BF0001B68ED1A002D26DCE56E2B68E366B4F821
:104C00006260686803F05EFB8642B6D3686803F0B2
:104C100059FBB4F862301B1AA4F862302B89804A21
:104C200011880B441380284601F08EFEB4F86230E0
:104C3000002BC8D0E36E002BC5D1A36E002BC2D1D0
:104C4000BAE70023D1E7E36E23B1002323860023D4
:104C5000E376A1E64FF6FF732386F8E7A4F8643005
:104C6000C3E66B4B40F2D5426E496B4805F07CF9C8
:104C7000C3E60020A6E6B4F86030694A12881344FF
:104C8000A4F86030636B2BB1A26B64490968521AB7
:104C9000002A28DB644B1B88002B00F05583227D03
:104CA000062A00F25183616A604A12688E1A012E48
:104CB00004D41344CB1A0133002B38DD521A002AD6
:104CC000C0F29580594B1968626A8B1A002B06DB7B
:104CD000238D1344CB1A0133002B40F38D802046E3
:104CE00001F05AFA40E3524A16889AB2B31A9BB2BC
:104CF000B4F93C50C5F3CF001B1A99B21BB229443A
:104D000009B2A187002B0EDBB4F93E20A3EBA2036E
:104D10009BB213449BB2E38703EBE103A4F840305A
:104D200000236363B6E7921B024413B2ECE7414BE6
:104D30005D68374695B147F6FE739E4216DC3D4BE3
:104D400058684389B34244DA0389B34216DB394BCE
:104D50005B681A89B6B2921B92B21CE02C4B40F2EF
:104D60003C5235492C4805F0FFF8E4E7284B40F267
:104D70003D523249284805F0F7F8E0E7244B40F26D
:104D80003F522F49244805F0EFF8E0E7FF1A2A8147
:104D900000236B812D686B89BB42F7DB794209B236
:104DA000284603F0B3F860B9626A204803689B1A8A
:104DB0009BB220490D892B440B810260CB685A605D
:104DC00080E7134B40F24C521E49134805F0CCF8D3
:104DD000EAE7714209B203F099F80028E4D00C4BDD
:104DE00040F2515217490C4805F0BEF8DCE7A37EAB
:104DF00043F00203A37665E7914225D0204601F0F7
:104E0000CBF9256F002D00F0BD810026DDE100BF4C
:104E100098B100080CB2000800B000089C71002096
:104E2000B4710020E4B10008DA710020C0710020E4
:104E3000EC710020A47100202CB200083CB20008E4
:104E40004CB200085CB200088F4B1D89DB68988962
:104E500001F07EFC10F0030300D001232B449BB231
:104E60008A4A1380228D93420CD8236F002B58D08E
:104E7000854BDB68988901F06BFC10F0010F4DD178
:104E8000256F80E0804BDB68988901F061FC10F0B1
:104E9000010F2FD1228D7C4B1A81DB68988901F09C
:104EA00057FC10F0020F03D0774A1389013B13819E
:104EB000754E3189706803F08DF93589F3689889EA
:104EC00001F046FC10F0030300D001232B449BB2F9
:104ED0006E4A13806E4A12681344626A218D0A4436
:104EE0009342C2D06B4B40F27E526B496B4805F047
:104EF0003BF8BAE7644EF368988920F47C55ADB26C
:104F000001F026FC00F03E0001F022FCF3680543AE
:104F10009D81BFE70368236701F016FD206F00281D
:104F2000F8D15A4B1A885A4B1B6813446362238D7D
:104F30009A4200F29280238D544A12889B1A23854C
:104F4000204601F08FFC504B5B681A8922B1544A0D
:104F500013604D4B00225A604B4BDB68988901F07F
:104F6000F7FB10F0010F00F0BD804E4A137843F0BC
:104F700020031370B6E03B44444A13802E68284651
:104F800001F0E2FC354665B3404B1B88404A12688D
:104F90001344E9684A68288902449B1A002B20DBE5
:104FA000888901F0D5FB10F0010FE7D0364BDB68A4
:104FB000988901F0CDFB10F0020FDFD1324EF3687B
:104FC0009F89012001F0C4FBF36807439F81378963
:104FD000F368988901F0BCFB10F00303CBD00123E8
:104FE000C9E74DB12A4B1968284B1B880B44EA6866
:104FF00052689B1A002B01DC256792E7521A224B5C
:105000001A81DB68988901F0A3FB10F0020F03D02E
:105010001D4A1389013B13811B4F3989786803F0BE
:10502000D9F83E89FB68988901F092FB10F00303E0
:1050300000D0012333449BB2144A1380144A1268EF
:105040001344EA6852689342D6D0124B40F2AE52F3
:105050001549124804F088FFCEE70E4B40F2B952D2
:1050600012490E4804F080FF65E700234CE000235E
:1050700058E0084B40F2DD520D49084804F074FF37
:1050800053E000235AE000BFA4710020DA71002031
:10509000C071002098B1000870B2000800B000088C
:1050A000B8710020BC710020A8B20008E4B200086A
:1050B00004B300089C4B196000236B60EB6898896F
:1050C00001F046FB10F0010F07D0984A137843F027
:1050D00020031370237D042B42D02B6823672846BE
:1050E00001F032FC256F002D3DD0EA685368616AFB
:1050F0008B4238D18E490B602E89908901F028FBB4
:1051000010F0030FB1D001231E44636A334463627D
:10511000278D2E89EB68988901F01AFB10F0030F98
:10512000A5D001231E44B742A3D32E89EB689889EA
:1051300001F00EFB10F0030FA3D001231E44238DBA
:105140009B1B2385204601F08DFB69680B89002B92
:10515000B4D0754B18680028ACD003F0D9F8ABE791
:1051600007232375B9E7A37E13F0010F06D003F0E0
:10517000FE03A37643F00203A376F5E043F00103B8
:10518000A376F1E06B4801F0F6FB2067ECE0694B99
:105190001A892B899A4240F2E780664801F0EBFBBE
:1051A0000346002800F0E0802EB130602946184602
:1051B000FFF782FBD8E02067F8E7991A00292EDB79
:1051C00029682E4600293CD00D46002D00F0CC80E9
:1051D000E8684268564B1B689A42D8D0002EECD043
:1051E000F1684968591A0129EAD4991A013100294C
:1051F000E6DC504801F0BFFB0446002800F0B48014
:10520000F368596832890A44494B1B68D21A002A4C
:1052100010DC346029462046FFF74EFBA4E04548E9
:1052200001F0A9FB002800F09F8020672946FFF7C6
:1052300043FB99E05B1A99B23181706802F0CAFFB2
:10524000E7E79B1A002B01DC0D46BEE7808901F0E1
:105250007FFA10F0010F40F08780364801F08BFB99
:105260002860002800F08080EB6859682A890A4489
:105270002F4B1B68D21A002A3EDC2F4B1B882C4A6E
:1052800012681344626A218D0A449B1A002B6BDD5D
:105290002B68DB68988901F05BFA10F0010F32D1BE
:1052A000626A238D13449BB22A68214909685B1AFC
:1052B00013812B681989586802F08CFF2B681D89AF
:1052C000DB68988901F044FA10F0030300D0012351
:1052D0002B449BB2184A1380154A12681344626A21
:1052E000218D0A4493423FD0144B40F27A62144914
:1052F000144804F039FE37E05B1A99B229816868D6
:1053000002F068FFB9E72B68DB68988920F47C56C7
:10531000B6B201F01DFA00F03E0001F019FA2B6858
:10532000DB6806439E81BBE7B8710020BC7100209A
:10533000C0710020A4710020DA71002098B100082B
:1053400070B2000800B00008084B1B68626A991A26
:10535000002905DB218D0A449B1A0133002B03DD54
:10536000A37E43F00203A376F8BD00BFC071002006
:1053700030B583B00446894B1B7813F0040F32D04C
:10538000017D022911D0426A854B1B689A4215D0D3
:10539000991A00290EDB018D0A449B1A002B09DCA7
:1053A000837E43F00203837604E0C26C7D4B1B686E
:1053B0009A4203D00025284603B030BD59B17A4A3D
:1053C000137843F008031370A37E23F00103A37640
:1053D0006FF00D05EFE7754B40F2E7227449754811
:1053E00004F0C2FDEBE713F0020F04D0037D023B93
:1053F000DBB2012B1BD8A37E13F0100F02D16E4B32
:105400001B682362002384F896302046FFF71AF9C0
:10541000237D023B072B00F21D82DFE813F00E0014
:105420009E00360147019E013601CD010102837EB7
:1054300043F0020383760025BDE7584B1B7803F049
:105440001202122A04D013F0100F69D10025B2E71E
:10545000626C0132534909688A42F4D1504B1B688F
:105460005A1C6262E2626164544A1268D289A4F8EA
:105470005C20A4F85E20013B236504232375E1181A
:10548000608E01F0C3FF6086430041F21C1293421C
:1054900038BF13468000984228BF1846A4F8480039
:1054A000B4F862301BB3B4F86230013BA4F8623048
:1054B000E56E25B32B68E366284601F045FAE36EF6
:1054C00053B30023238684F84230D4F8843043B1A8
:1054D0000022214620699847054610F10D0F3FF440
:1054E0006AAFA37E43F00203A376002563E72F4B48
:1054F00040F21A3232492F4804F036FDD3E7A56E48
:1055000015B12B68A366D7E7284B40F222322D490C
:10551000284804F029FDF4E74FF6FF732386D4E70B
:10552000264B1A68284B294908881D49096815889F
:105530000195528800921A1D01441A48006800F033
:10554000ADFF94F84230052B01D9002533E7002543
:105550002586204600F0F8FF2DE7104B1B7813F04E
:10556000100F00F081800F4B1868636CC31A012B79
:1055700003D4E36CC31A002B2ADD104B1A68124BBC
:1055800012490C88064909681588019552880092CD
:105590001A1D214400F082FF00250CE7A0710020B5
:1055A000C07100209C710020BC71002098B10008DF
:1055B0002CB3000800B00008EC710020CC71002072
:1055C0004CB3000864B3000820720020DA71002098
:1055D00004232375A36F0BB19B6973B3A36F002BD7
:1055E00033D09B69002B38D0002221462069984790
:1055F000054660BB2046FFF7A3F99C4B1B8813B1FF
:10560000013B9A4A1380628E530041F21C118B4277
:1056100038BF0B469200934228BF1346A4F8483087
:10562000934B1B7813F0200F3FF4C5AEA37E43F0DD
:105630000203A37607232375BDE68E4B4FF4547205
:105640008D498E4804F090FCC8E76FF0050515F110
:105650000D0F05D16FF00C05ADE66FF00F05F6E705
:10566000204601F0DFFDF5E713F0020F00F0F480B3
:10567000636A013B824A1268934201D000259AE690
:10568000204600F07AFF002595E62046FFF758F9FE
:10569000774B1B7813F0200F00F0E080A37E43F0DF
:1056A0000203A37607232375002584E62046FFF72F
:1056B00047F96F4B1B7813F0200F39D0714B1B78D3
:1056C00013F0100F04D0E26C6F4B1B689A4207D0A6
:1056D000A37E43F00203A3760823237500256AE620
:1056E000A36E002BF4D1A37E43F00203A3762046E1
:1056F00001F055F9654B1B68A34205D053B1DA6838
:10570000A24205D01346F9E7DA68604B1A6001E05F
:10571000E268DA600025E5605D4B01221A700A2319
:1057200023755C4B1A68E2601C6001F04DFF42E695
:10573000544B1B7813F0100F00F09280E26C524B28
:105740001B689A4201D0002535E6A36E0BB10025F7
:1057500031E60623237500252DE62046FFF7F0F8F5
:10576000434B1B7813F0200F01D1002523E6A37EC5
:1057700043F00203A376204601F011F9434B1B6866
:10578000A34205D053B1DA68A24205D01346F9E727
:10579000DA683E4B1A6001E0E268DA600025E560F5
:1057A0003B4B01221A700A2323753A4B1A68E260B8
:1057B0001C6001F009FFFEE52046FFF7C1F8314B00
:1057C0001B7813F0100F4DD0E26C2F4B1B689A42E0
:1057D00001D00025EFE5A36E0BB10025EBE52046D7
:1057E00001F0DDF8294B1B68A34205D053B1DA68FC
:1057F000A24205D01346F9E7DA68244B1A6001E0AB
:10580000E268DA600025E560214B01221A700A2364
:105810002375204B1A68E2601C6001F0D5FECAE5D2
:105820002046FFF78DF8174B1B7813F0100F1BD095
:10583000E26C154B1B689A4201D00025BBE5A36EB4
:105840000BB10025B7E50A4A137843F01003137033
:105850000025B0E50025AEE50025ACE50025AAE56C
:105860000025A8E50025A6E50025A4E5B4710020E3
:10587000BC71002098B1000878B3000800B000089F
:10588000C0710020A07100209C710020DC710020FC
:10589000E0710020F4710020F0B583B00546426845
:1058A000654B1A604389132B04D8284602F038FB55
:1058B00003B0F0BD614B1968586903F098F90028EE
:1058C000F3D15E4B5B6903F0F003E02BEDD05A4B54
:1058D0001B68988900F03CFFC0F30F318900C9B202
:1058E0001329E2D989B22B899942DED8A1F1140398
:1058F0009BB2534A1380534A002010606A89914238
:1059000031D92B68002B66D06FF01301284602F0C6
:10591000FDFA6C894C4B1C80494B1F883E1BB6B26C
:10592000614209B2284602F0F1FA28684389B3427D
:10593000BBD34268434B1A60E11B8CB209B202F040
:10594000E5FA2B891C442C816B89002B4AD12A89CA
:105950002B681B899A420CD03C4BD0223C493D48D5
:1059600004F002FB05E0384A13804942284602F061
:10597000CDFA314C2668308800F0EAFE3080266887
:10598000708800F0E5FE70802668706800F0E3FE25
:105990007060314B18602668B06800F0DCFEB060C3
:1059A0002E4B18602668F08900F0D2FEF081236843
:1059B000988900F0CDFE00F03F03294A13702A8930
:1059C00013F0030318BF01231344264A1380264B08
:1059D0001C6800265AE01D4BB22224491D4804F0E1
:1059E000C3FA91E7194BCF2221491A4804F0BCFAB7
:1059F000ADE7164BE2221F49164804F0B5FA4AE01B
:105A0000124BE3221C49134804F0AEFA46E00F4B58
:105A1000E4221A490F4804F0A7FA42E00B4BEC22AB
:105A200017490C4804F0A0FA52E0084BF42215493B
:105A3000084804F099FA55E0CC710020107200205B
:105A4000D8710020D4710020D071002098B10008D6
:105A5000B4B3000800B00008C07100209C710020A1
:105A6000A0710020DA710020DC71002098B30008DA
:105A7000A8B30008D4B30008FCB3000828B4000899
:105A800050B400087CB400082646E468002C29D0F5
:105A9000237D002BADD0237D0A2BB1D0237D012B9C
:105AA000B5D0218B8D4B1B681A889142ECD1E28ACC
:105AB0005B889A42E8D16268894B1B699A42E3D1BC
:105AC0002268874B5B699A42DED1E368A342A5D086
:105AD0002EB1E368F360834B1A68E2601C60E368F0
